:020000040800F2
:100000000020002075090008F3000008F500000832
:1000100000000000000000000000000000000000E0
:10002000000000000000000000000000F9000008CF
:100030000000000000000000FB000008FD000008B8
:10004000B9090008B9090008B9090008B909000888
:10005000B9090008B9090008B9090008B909000878
:10006000B9090008B9090008B9090008B909000868
:10007000B9090008B9090008B9090008B909000858
:10008000B9090008B909000800000000B909000812
:10009000B9090008B9090008B9090008B909000838
:1000A000B9090008B9090008B9090008B909000828
:1000B000B909000800000000B909000800000000AC
:0400C0005FF808F1EC
:1000C400080A00080000002024000020240000206A
:1000D4002C00002007B5002304E0019B01330193A9
:1000E400009B01330093009B8342F6DB07BD7047FE
:1000F40000B5FEE77047704770470000264B13B504
:100104001968012211431960586824490F240140D9
:100114005960186822490140196018682149014052
:1001240019605868204908405860D86AA043D862CA
:100134001C6B1E4820401863586B90430022586380
:100144009A60009201921A4A112010605A685A600B
:100154005A685A605A68114059605968A02292033B
:100164000A435A601968802282400A4380211A6037
:1001740089041868084A0842FBD051680320814367
:10018400516051680220014351600C215A680A40B1
:10019400082AFBD113BDC046001002400CB8FFF87A
:1001A400FFFFF6FEFFFFFBFFFFFFC0FFACFEFFFFFC
:1001B4000020024070B5144C0C236268134D1340A8
:1001C400042B01D0082B02D0114B2B6012E066687F
:1001D4006368B602360F0236D90302D40D4B5E4370
:1001E40007E0E16A0F2319400131094800F070FB70
:1001F40046432E606268054B1206120F9A18127954
:100204001968D140196070BD001002400000002040
:1002140000127A0000093D0008B59023DB059842DE
:1002240007D180208002012100F0D4FA80208002CE
:100234002AE0174B984207D18020C002012100F028
:10024400C9FA8020C0021FE0124B984207D18020D7
:100254000003012100F0BEFA8020000314E00E4BDD
:10026400984207D180204003012100F0B3FA802096
:10027400400309E0094B984209D18020C0030121C1
:1002840000F0A8FA8020C003002100F0A3FA08BD02
:100294000004004800080048000C0048001400480E
:1002A400F7B50A68002301920124019D9C40254072
:1002B400A5422ED10C79661E012E16D88668032716
:1002C4000096009A5E00B740BA4382604A79876814
:1002D400B240161C3E4386608688AE4386808D7984
:1002E40086889D403543ADB285805D00032607684E
:1002F400AE40F643374007600768AC403C430460B7
:10030400C4682640C660CE79C468AE40351C254317
:10031400C5600133102BC7D1F7BD044B0222036023
:100324000023037142718371C3717047FFFF0000A2
:10033400802382B05B020193019B0B430193019BD9
:10034400C361C161019BC361C3690193C369019323
:1003540002B07047008A0840431E98417047008AE3
:100364007047808A0840431E98417047808A7047CE
:10037400816170470185704700B5002A01D0816111
:1003840000E0018500BD8182704707230B40C90846
:100394000831890030B59B000C580F259D40AC43B3
:1003A4000C500C589A40131C23430B5030BDC046CC
:1003B400114B012219681143196058680F49014013
:1003C400596018680E490140196018680D490140C8
:1003D400196058680C4901405960D96A0F2081435B
:1003E400D962186B094901401963596B9143002282
:1003F40059639A607047C046001002400CB8FFF879
:10040400FFFFF6FEFFFFFBFFFFFFC0FFACFEFFFF99
:10041400024B00221A7018707047C0460210024046
:10042400034BF8211A68C0008A43104318607047D0
:1004340000100240054B00B501221968002801D0C4
:100444000A4301E091430A1C1A6000BD00100240F7
:10045400034BF8215A6BC0008A431043586370471A
:1004640000100240054B00B50122596B002801D051
:100474000A4301E091430A1C5A6300BD0010024084
:10048400054B00B50422596B002802D091430A1C85
:1004940000E00A435A6300BD00100240064B0121EC
:1004A4001A6A8A431A621A6A04218A431A621A6A05
:1004B400104318627047C04600100240044B1821D4
:1004C4001A6A8A431A621A6A104318627047C0464D
:1004D40000100240054B00B50122596A002801D0E2
:1004E4000A4301E091430A1C5A6200BD0010024015
:1004F400054B10B5054A5C6822405A605A6810439F
:100504000843586010BDC04600100240FFFFC2FF00
:10051400064B00B51968002803D0802252040A4310
:1005240001E0034A0A401A6000BDC04600100240C0
:10053400FFFFFFFE034B0F21DA6A8A431043D862A0
:100544007047C04600100240064B00B519680028E9
:1005540003D0802212030A4301E0034A0A401A60CE
:1005640000BDC04600100240FFFFF7FF014B1870AA
:100574007047C04607100240034B03215A688A4360
:10058400104358607047C04600100240024B586840
:100594000C2318407047C04600100240034BF02162
:1005A4005A688A43104358607047C046001002409E
:1005B400034B044A59680A40104358607047C046C8
:1005C40000100240FFF8FFFF084B094A59680A402F
:1005D4005A605A6881B20A435A60196B054A000C82
:1005E4000A401A631A6B10431863704700100240E4
:1005F400FFBFFFFFFFFEFFFF044B40211A6B8A433E
:100604001A631A6B104318637047C0460010024007
:10061400044B10211A6B8A431A631A6B1043186334
:100624007047C04600100240044B03211A6B8A43F2
:100634001A631A6B104318637047C04600100240D7
:1006440070B5334D0C236A68041C1340042B01D08D
:10065400082B02D02F4B236012E06E686B68B60241
:10066400360F0236D90302D42B4B5E4307E0E96A06
:100674000F2319400131274800F02AF94643266028
:100684006A68264B1206120F20689A5C011CD1403E
:1006940061600A1C69684905490F5B5CDA40A26025
:1006A4002B6BD90501D41E4B06E0194B5B6859042A
:1006B40001D4530800E09308E3602B6B590601D47E
:1006C400184B01E080231B0223612B6BD90602D453
:1006D400104B636100E060612D6B03230C491D42E4
:1006E40001D1A26112E00A6B1A40012A01D1A06172
:1006F4000CE00A6B1A40022A02D180231B0204E098
:100704000A6B1340032B01D1024BA36170BDC04699
:100714000010024000127A0000093D00140000207D
:10072400809FD50012800000024B1A6A10431862A1
:100734007047C04600100240064B00B5196A0028F5
:1007440003D0802212020A4301E0034A0A401A62DB
:1007540000BDC04600100240FF7FFFFF064B00B5FE
:10076400196A002803D0802252020A4301E0034A96
:100774000A401A6200BDC04600100240FFFFFEFF9F
:10078400054B00B55A69002902D01043586101E0B5
:1007940082435A6100BDC04600100240054B00B5BB
:1007A4009A69002902D01043986101E082439A615A
:1007B40000BDC04600100240054B00B5DA690029AF
:1007C40002D01043D86101E08243DA6100BDC04623
:1007D40000100240054B00B59A6A002902D010436C
:1007E400986201E082439A6200BDC0460010024054
:1007F400054B00B5DA68002902D01043D86001E047
:100804008243DA6000BDC04600100240054B00B5CB
:100814001A69002902D01043186101E082431A6169
:1008240000BDC0460010024000B5054B1A780029EF
:1008340002D01043187001E082431A7000BDC04614
:100844000910024000B54109094A01D1136808E0C2
:10085400012901D1136A04E0022901D1536A00E09D
:10086400536B1F221040C340181C0122104000BDCE
:100874000010024007B5002301931120FFF7E2FFA7
:10088400019B01330193019AA023DB009A4201D01A
:100894000028F2D01120FFF7D5FF431E98410EBD6A
:1008A400034B8022596A52040A435A627047C04675
:1008B40000100240024B9B681840431E9841704749
:1008C40000100240014B18707047C0460A100240E5
:1008D400002934D00123002210B488422CD30124EF
:1008E4002407A14204D2814202D209011B01F8E784
:1008F400E400A14204D2814202D249005B00F8E73D
:10090400884201D3401A1A434C08A04202D3001B68
:100914005C0822438C08A04202D3001B9C0822439B
:10092400CC08A04202D3001BDC082243002803D0D9
:100934001B0901D00909E3E7101C10BC704700280B
:1009440001D00020C04307B4024802A1401802901D
:1009540003BDC046190000000029F0D003B5FFF71D
:10096400B9FF0EBC4243891A1847C0467047C046B7
:10097400002103E00A4B5B584350043109480A4BF9
:1009840042189A42F6D3094A02E000231360043263
:10099400074B9A42F9D3FFF7B1FB00F00DF870470B
:1009A400080A000800000020240000202400002081
:1009B4002C000020FEE70000802038B50003012150
:1009C400FFF7DEFE0C49C0239B000B6001230B7173
:1009D4000322002309488B714A71CB71FFF760FC35
:1009E400064CC025AD00A5610548FFF773FB2585BE
:1009F4000348FFF76FFBF3E72400002000080048DA
:040A0400A0860100C7
:100A0800006CDC020000000000000000010203048A
:100A1800060708090000000001020304010203049C
:040A280006070809AC
:040000050800097571
:00000001FF
